:100000000000042001010000E93600000370000038
:10001000E9360000E9360000E93600000000000083
:10002000000000000000000000000000E9360000B1
:10003000E936000000000000E9360000E936000063
:10004000E9360000E9360000E9360000E936000034
:10005000E9360000E9360000E9360000E936000024
:10006000E9360000E9360000E9360000E936000014
:10007000E9360000E9360000E9360000E936000004
:10008000E9360000E9360000E9360000E9360000F4
:10009000E9360000E9360000E9360000E9360000E4
:1000A000E9360000E9360000E9360000E9360000D4
:1000B000E9360000E9360000000000000000000002
:1000C000E9360000E9360000E9360000E9360000B4
:1000D000E9360000E9360000E9360000E9360000A4
:1000E000E9360000E9360000E936000000000000B3
:1000F00000000000E936000000000000E9360000C2
:1001000003F0F6FA084809490022814201D004C0F0
:10011000FBE707480749084A814202D008CA08C0DD
:10012000FAE700F0B7FB00DE380000204C1000209A
:100130000000002038000020708D000080B56F4660
:1001400081B0009001B080BD80B56F4682B0009054
:10015000019102B080BDD4D480B56F469AB00792A9
:1001600008918446CDF824C0B8680A90CDF840C004
:100170001191129207F81A3C07F8190CD8B20B909B
:100180000B99DFE801F0041325374900FEDE0A98D9
:10019000C0B201460691002856D0FFE70698022813
:1001A00066D0FFE70698042878D047E00A98C0B2E6
:1001B00001460591002800F09580FFE70598022888
:1001C00000F0A680FFE70598042800F0B98035E02C
:1001D0000A98C0B201460491002800F0C980FFE7E8
:1001E0000498022800F0DA80FFE70498042800F061
:1001F000EB8023E00A98C0B201460391002800F08A
:10020000FB80FFE70398022800F00E81FFE70398C8
:10021000042800F0218111E00A98C0B20146029141
:10022000002800F03181FFE70298022800F04481A5
:10023000FFE70298042800F05781FFE70A98C0B250
:10024000012800F0778183E10898099BDDF81CC044
:1002500053E8001F014503D143E800C2002AF7D14B
:10026000081AB0FA80F040090E918DF83C002DE09C
:100270000898099BDDF81CC053E8001F014503D115
:1002800043E800C2002AF7D1081AB0FA80F040090A
:10029000BFF35F8F0E918DF83C0017E00898099B23
:1002A000DDF81CC0BFF35F8F53E8001F014503D189
:1002B00043E800C2002AF7D1081AB0FA80F04009DA
:1002C000BFF35F8F0E918DF83C00FFE70E98019011
:1002D00014909DF83C0007F8110CC007002840F06E
:1002E000208119E10898099BDDF81CC0BFF35F8FDE
:1002F00053E8001F014503D143E800C2002AF7D1AB
:10030000081AB0FA80F040090E918DF83C00DDE744
:100310000898099BDDF81CC0BFF35F8F53E8001FEE
:10032000014503D143E800C2002AF7D1081AB0FA08
:1003300080F04009BFF35F8F0E918DF83C00C5E758
:100340000898099BDDF81CC0BFF35F8F53E8001FBE
:10035000014503D143E800C2002AF7D1081AB0FAD8
:1003600080F04009BFF35F8F0E918DF83C00ADE740
:100370000898099BDDF81CC053E8001F014503D114
:1003800043E800C2002AF7D1081AB0FA80F0400909
:10039000BFF35F8F0E918DF83C0097E70898099B9B
:1003A000DDF81CC053E8001F014503D143E800C23B
:1003B000002AF7D1081AB0FA80F04009BFF35F8F26
:1003C0000E918DF83C0081E70898099BDDF81CC070
:1003D000BFF35F8F53E8001F014503D143E800C21C
:1003E000002AF7D1081AB0FA80F04009BFF35F8FF6
:1003F0000E918DF83C0069E70898099BDDF81CC058
:10040000BFF35F8F53E8001F014503D143E800C2EB
:10041000002AF7D1081AB0FA80F04009BFF35F8FC5
:100420000E918DF83C0051E70898099BDDF81CC03F
:10043000BFF35F8F53E8001F014503D143E800C2BB
:10044000002AF7D1081AB0FA80F04009BFF35F8F95
:100450000E918DF83C0039E70898099BDDF81CC027
:10046000BFF35F8F53E8001F014503D143E800C28B
:10047000002AF7D1081AB0FA80F04009BFF35F8F65
:100480000E918DF83C0021E70898099BDDF81CC00F
:10049000BFF35F8F53E8001F014503D143E800C25B
:1004A000002AF7D1081AB0FA80F04009BFF35F8F35
:1004B0000E918DF83C0009E70898099BDDF81CC0F7
:1004C000BFF35F8F53E8001F014503D143E800C22B
:1004D000002AF7D1081AB0FA80F04009BFF35F8F05
:1004E0000E918DF83C00F1E60898099BDDF81CC0E0
:1004F000BFF35F8F53E8001F014503D143E800C2FB
:10050000002AF7D1081AB0FA80F04009BFF35F8FD4
:100510000E918DF83C00D9E601980D9001200C90C9
:1005200004E001980D9000200C90FFE70C980D99C5
:100530001AB080BD47F21000C0F2000016903421BE
:10054000179147F63412C0F20002692105F0BDFF91
:1005500047F64410C0F2000018903D21199147F66B
:100560008412C0F200027B2105F0AFFF80B56F4618
:100570008AB0009101900390049105910690079133
:100580000890FFE701980099099001EB810100EBC9
:10059000C1000290FFE7019802990AB080BD80B5C2
:1005A0006F468EB003900790012008900990FFE7F6
:1005B0000398016801910A91406802900B90FFE74F
:1005C00001980299884205D0FFE7039901982830E5
:1005D000086000E012E00198069006990C91A7F1DE
:1005E000250000F05BF90590059818B1FFE7059824
:1005F0000D9000E0DCE705980EB080BD002005906E
:10060000F9E780B56F4681B0009001B080BD80B53C
:100610006F4681B0009001B080BD80B56F4681B05B
:100620000090406801B080BD80B56F4681B00090F9
:10063000006801B080BD80B56F468AB00491059016
:100640000790089159B1FFE70499059AB2FBF1F0C0
:1006500000FB112001460391099030B108E047F6F4
:100660009410C0F2000006F0E4F90598069006E048
:1006700004980399421A029288420BD302E006982A
:100680000AB080BD0599029808440246019288424A
:1006900009D305E047F69410C0F2000006F0E7F930
:1006A00001980690EBE747F69410C0F2000006F0C0
:1006B000CAF980B56F4683B00090029003B080BD48
:1006C00080B56F4683B00090029003B080BD80B5C6
:1006D0006F4681B000900068B0FA80F0400901B028
:1006E00080BD80B56F4681B007F8010C01B080BDB8
:1006F00080B56F4684B00190029003F010F900F0CD
:10070000F0F8FFE7019803F0F9F820BFFAE780B5A9
:100710006F4683B000900190029003B080BD80B519
:100720006F4682B00190FFF7F2FF00F0C1F802B00F
:1007300080BD80B56F4688B0019106900791FFF7A4
:10074000E6FF0199029004A8039000F0BCF802981B
:10075000039947F6A412C0F2000200F000F908B0B5
:1007600080BD80B56F4682B00190FFF7D0FF02B028
:1007700080BD80B56F4683B000900191029001600A
:1007800003B080BD80B56F4681B00090B0FA80F0B4
:10079000400901B080BD80B56F4684B0009107F874
:1007A000050C039118B9FFE70020019004E00098C0
:1007B00000F0D2FA0190FFE7019804B080BD80B547
:1007C0006F4682B0009007F8021C07F8012C00F079
:1007D00081FB02B080BDD4D480B56F4684B007F8E9
:1007E000090CC0B200900099DFE801F00412131464
:1007F0001500FEDE47F6B410C0F200000290292179
:10080000039147F6E012C0F20002532105F05DFEAD
:1008100002E001E000E0FFE704B080BD80B56F4674
:1008200086B0D7F808C002900391049207F8023C02
:1008300007F801CCEE46CEF800C0FFF78DFC06B0FD
:1008400080BD80B56F4682B00090019040F23800C4
:10085000C2F2000000F0A2F8009900F005FA02B020
:1008600080BD80B56F4684B001A8009003F03EF9CA
:10087000009800F030F80390FFF73AFF80B56F461C
:1008800082B0009101460098019008600020087134
:1008900002B080BD80B56F46FFF7E3FF80B56F46BD
:1008A00082B000910190009800F02FFA02B080BD54
:1008B00080B56F4682B00090007910B9FFE702B0B2
:1008C00080BD02B080BD80B56F4682B00191FFF758
:1008D000D5FF02B080BD80B56F4681B0009001B0F9
:1008E00080BD80B56F4682B000900098FFF7A9FFE9
:1008F0000146684600F0A3FA02B080BD80B56F469D
:100900008AB002900590069108900079C00720B146
:10091000FFE700200028FCD11BE002980068099046
:1009200003A8019000F03CFB019801F0A9FB40F204
:100930000200C0F2000005F0B7FA27F8160CA7F184
:10094000160005F060FA02990120087100200AB033
:1009500080BD47F6F010C0F2000006F092F880B5B6
:100960006F4681B00A4601460091106852684A609D
:10097000086001B080BD80B56F4682B0009101462D
:10098000009801900860486047F60020C0F200001F
:10099000026840688A60C86002B080BD80B56F465A
:1009A00082B0019000F010FA02B080BDF0B503AF44
:1009B0004DF8048DB2B00E90FFF782FE0146039110
:1009C000109000F0EAF9FFF7DDFE38B9FFE7039871
:1009D00000F0E3F932B05DF8048BF0BD40F2400066
:1009E000C2F2000000F036F80290119004A80190C5
:1009F00000F043F9DDF804C003980299319126AB69
:100A00001A46BCE87041A2E870419CE8704182E857
:100A100070410DF1700C6246B3E87041A2E870417C
:100A200093E8704182E8704112AB1A46BCE870410D
:100A3000A2E870419CE8704182E870410A46B3E840
:100A40007050A2E8705093E8705082E8705000F047
:100A5000ABF9BCE780B56F46A0B008900E9000F0EF
:100A600033FA024608980A920B911F901D9010903D
:100A70001A904FF480511B9100F580500146099166
:100A80001190FFF716FE00F081F90C900C9802F01F
:100A9000DFFD38B9FFE709980C99421A079288429E
:100AA00016D304E008981E901C900C90F3E707986A
:100AB00012900C9805900AA8FFF7B6FD014605981C
:100AC000FFF7B9FD0C99421A0692884212D305E04D
:100AD00047F60820C0F2000005F0C9FF0698139001
:100AE0000AA8FFF79AFD0699084402460492884234
:100AF0000BD305E047F61820C0F2000005F0B7FF61
:100B00000498079988421AD805E047F62820C0F2D1
:100B1000000005F098FF06990C9818901991084468
:100B20000146019114900C9802900AA8FFF775FDF8
:100B30000699084402460392884220D30DE040F211
:100B40000300C0F2000005F0AFF927F84A0CA7F146
:100B50004A0005F058F905F0ECF908980299039A53
:100B60001691179211440091159100F58050FFF7EE
:100B7000A0FD009900F020F9019820B080BD47F653
:100B80003820C0F2000005F05EFF80B56F4692B0DD
:100B900003900C9002F087FE0146029111900D9097
:100BA0002030FFF7DEFD01460398049110910E916D
:100BB00002F061FE0690079108A8059006A9FFF7CC
:100BC000DAFE04980599FFF799FE30B1FFE7069821
:100BD0000799FFF7B9FA12B080BD02982030FFF7ED
:100BE0009EFD02981C3043F2F761C0F20001FFF74E
:100BF000C0FD0298103001900F900120FFF7ECFD2E
:100C0000019800221146FFF7DAFDE0E780B56F4654
:100C10008AB0019107900891002107F80D1C01216D
:100C200007F80D1C00F0A9F80490059104A8FFF73F
:100C3000B6FC0390039850B1FFE70199039809901F
:100C4000002207F80D2C00F045F8029003E000F0B8
:100C5000ECF80290FFE717F80D0CC00718B9FFE792
:100C600002980AB080BDFBE780B56F4682B0009065
:100C70000191FFF7CBFF02B080BDB0B502AF8EB0DF
:100C8000019004A90846283102910390FFE70299D8
:100C900003980090884211D0FFE7009847F6482259
:100CA000C0F200020146B2E83850A1E8385092E89C
:100CB000385081E8385028300390E8E7019804A9BB
:100CC000B1E81C50A0E81C5091E81C5080E81C5072
:100CD0000EB0B0BD80B56F4686B001910290039012
:100CE00004911C3040F68B31C0F20001FFF741FD4A
:100CF000019902982030FFF71CFD029800F033F8AC
:100D0000059000F096F806B080BD80B56F4688B0BB
:100D1000039003981030019006900120FFF75CFDCE
:100D2000019802F074FD694600230B6040F2011245
:100D30001946FFF773FD0490059104A8FFF7C7FC5F
:100D4000029007F8010C0220FFF746FD029803A964
:100D5000FFF721FD08B080BD80B56F4681B00090DF
:100D6000006801B080BD80B56F4682B00190FFF78A
:100D70004EFCFFF746FC02B080BD80B56F4682B0E6
:100D800000900191FFF7F2FB02B080BD80B56F4685
:100D900081B00090006801B080BD80B56F4681B021
:100DA0000090006801B080BD80B56F4682B00090B1
:100DB0000191016002B080BD80B56F4682B00090A5
:100DC0000191016002B080BD80B56F4686B0019090
:100DD000049003F0FDFE0146019807F8011C07F896
:100DE000091CFFF7E3FD0290A7F1090002F070FC77
:100DF000029806B080BD80B56F4682B007F8010C3E
:100E0000FFF76FFC02B080BD80B56F4684B00190E3
:100E1000039003F095FC27F8060CB81F05F005F8C1
:100E2000019803F096FC04B080BD80B56F460020A9
:100E300080BD80B56F4681B0009001B080BD80B5A7
:100E40006F4686B00290039100F01DF8FFF7D3FFC4
:100E5000B8B1FFE7A7F113000090059040F204003D
:100E6000C0F2000005F020F827F8120CA7F11200DC
:100E700004F0B9FF0098FFF7C7FF04F021FD05F06B
:100E800058F806B080BD80B56F4688B00191014624
:100E900001980291059106900490FFF74FF904988C
:100EA00050B1FFE7029804990791006802F02EFD07
:100EB000002007F8110C03E0012007F8110CFFE7F0
:100EC00017F8110C08B080BD80B56F4608202821A6
:100ED00080BDD4D480B56F468AB001900B46029392
:100EE000049007F8121C07F8112CD0B20390039954
:100EF000DFE801F004080E1C2A00FEDE02980199CA
:100F0000087029E002980199BFF35F8F087023E011
:100F100047F67020C0F2000006902A21079147F69C
:100F20009C22C0F20002552105F0CFFA47F6AC2012
:100F3000C0F2000008903221099147F6E022C0F289
:100F40000002652105F0C1FA02980199BFF35F8F95
:100F50000870BFF35F8FFFE70AB080BD80B56F46B2
:100F600084B007F8090CC0B200900099DFE801F0E6
:100F7000041213141500FEDE47F6F020C0F2000044
:100F800002902921039147F61C32C0F2000253213E
:100F900005F09BFA02E001E000E0FFE704B080BD4D
:100FA00080B56F4681B00146002007F8030C062289
:100FB00007F8012C07F8020C0870487117F8012C8B
:100FC000CA7037F8032CA1F80120087101B080BD68
:100FD00080B56F4688B002F00DFB4EF60C50CEF295
:100FE0000000019002900390049047F62C31C0F26B
:100FF000000103F02DFD02F01FFB01460198059052
:101000000691079047F63C32C0F2000203F04CFD17
:1010100002F0F0FAFFE702F0FBFAFCE780B56F465A
:1010200086B0009000F0C1FA019007F80D0C00F0B6
:101030001FF803F012FE009A10685168926805923A
:101040000491039003A8A7F10F0100F0FCFE0198A2
:1010500000F0C4FA10B9FFE706B080BD00F001F857
:10106000FAE780B56F460420FFF778FF62B680BDCF
:1010700080B56F4672B60420FFF770FF80BD80B563
:101080006F4600F0B6FC80BD80B56F4600F042FDB3
:1010900080BD80B56F4600F046FE80BD80B56F46CE
:1010A00000F029FD80BD80B56F4600F0C0FC80BD1A
:1010B00080B56F4600F002FC80BD80B56F4600F041
:1010C000E2FD80BD80B56F4600F0BBFC80BD80B501
:1010D0006F4600F052FC80BD80B56F4600F000FE08
:1010E00080BD80B56F4600F0ABFD80BD80B56F461A
:1010F00000F01EFE80BD80B56F4600F020FC80BD74
:1011000080B56F4600F074FD80BD80B56F4600F07D
:10111000B6FC80BD80B56F4600F0F7FC80BD80B5A1
:101120006F4600F06FFD80BD80B56F4600F002FC99
:1011300080BD80B56F4600F0D8FD80BD80B56F469C
:1011400000F02AFC80BD80B56F4600F043FC80BDF6
:1011500080B56F4600F019FE80BD80B56F4600F087
:101160008DFD80BD80B56F4600F038FD80BD80B537
:101170006F4600F0F3FB80BD80B56F4600F00FFEB8
:1011800080BD80B56F4600F048FC80BD80B56F46DD
:1011900000F00CFC80BD80B56F4600F094FB80BD74
:1011A00080B56F4600F0DDFD80BD80B56F4600F074
:1011B000B5FD80BD80B56F4600F048FC80BD80B5B0
:1011C0006F4600F01BFC80BD80B56F4600F070FCE0
:1011D00080BD80B56F4600F0B1FC80BD80B56F4624
:1011E00000F0A2FC80BD80B56F4600F0A2FC80BD7F
:1011F00080B56F4600F080FB80BD80B56F4600F083
:101200002FFC80BD80B56F4600F0CAFC80BD80B564
:101210006F4600F02FFC80BD80B56F4600F0B6FC35
:1012200080BD80B56F4600F080FB80BD80B56F4605
:1012300000F051FD80BD80B56F4600F049FB80BDD8
:1012400080B56F4600F0DFFB80BD80B56F4600F0D3
:1012500030FB80BD80B56F4600F0BBFC80BD80B523
:101260006F4600F02AFC80BD80B56F4600F029FD76
:1012700080BD80B56F4600F065FD80BD80B56F46CE
:1012800000F034FC80BD80B56F4600F094FB80BD5B
:1012900080B56F4600F089FC80BD80B56F4600F0D8
:1012A000DEFC80BD80B56F4600F07EFD80BD80B560
:1012B0006F4600F017FB80BD80B56F4600F0A7FCBD
:1012C00080BD80B56F4600F0EEFB80BD80B56F46F7
:1012D00000F060FD80BD80B56F4600F002FC80BD6F
:1012E00080B56F4600F010FD80BD80B56F4600F000
:1012F00010FD80BD80B56F4600F062FB80BD80B5FB
:101300006F4600F020FC80BD80B56F4600F0ADFB5D
:1013100080BD80B56F4600F08FFB80BD80B56F4605
:1013200000F021FB80BD80B56F4600F0E9FB80BD79
:1013300080B56F4600F0D0FB80BD80B56F4600F0F1
:1013400006FD80BD80B56F4600F0D4FC80BD80B541
:101350006F4600F070FC80BD80B56F4600F07BFBEF
:1013600080BD80B56F4600F0D6FA80BD80B56F466F
:1013700000F039FC80BD80B56F4600F001FD80BDF6
:1013800080B56F4600F0E5FA80BD80B56F4600F08D
:101390003FFB80BD80B56F4600F07FFC80BD80B50F
:1013A0006F4600F089FC80BD80B56F4600F00CFCF4
:1013B00080BD80B56F4600F07AFC80BD80B56F4679
:1013C00000F012FB80BD80B56F4600F0EAFA80BDE8
:1013D00080B56F4600F05DFB80BD80B56F4600F0C4
:1013E000F4FA80BD80B56F4600F0C0FC80BD80B5CA
:1013F0006F4600F0C7FA80BD80B56F4600F067FB0E
:1014000080BD80B56F4600F081FA80BD80B56F4623
:1014100000F077FA80BD80B56F4600F095FA80BD88
:1014200080B56F4600F09EFB80BD80B56F4600F032
:1014300011FC80BD80B56F4600F04FFA80BD80B5CD
:101440006F4600F025FC80BD80B56F4600F03AFB8A
:1014500080BD80B56F4600F07FFC80BD80B56F46D3
:1014600000F085FB80BD80B56F4600F0FDFB80BDC0
:1014700080B56F4600F07FFC80BD80B56F4600F000
:10148000CBFB80BD80B56F4600F081FA80BD80B592
:101490006F4600F0C7FA80BD80B56F4600F027FAAE
:1014A00080BD80B56F4600F0EFFA80BD80B56F4615
:1014B00000F0DFFB80BD80B56F4600F030FB80BDE3
:1014C00080B56F4600F0EAFA80BD80B56F4600F047
:1014D00086FA80BD80B56F4600F04AFA80BD80B5BF
:1014E0006F4600F0DFFB80BD80B56F4600F0EEFB7D
:1014F00080BD80B56F4600F020FC80BD80B56F4692
:1015000000F0A3FB80BD80B56F4600F076FB80BD88
:1015100080B56F4600F08AFB80BD80B56F4600F055
:10152000FFF980BD80B56F4600F026FB80BD80B519
:101530006F4600F0E4FB80BD80B56F4600F03AFBDB
:1015400080BD80B56F4600F026FB80BD80B56F463C
:1015500000F067FB80BD80B56F4600F012FB80BDD8
:1015600080B56F4600F02BFB80BD80B56F4600F064
:10157000F4FA80BD80B56F4600F0EAFA80BD80B510
:101580006F4682B000F06BF802B080BD80B56F4648
:1015900084B0009001910078029009780391401A7C
:1015A000B0FA80F0400904B080BD80B56F4683B0CA
:1015B000EFF3108002900298019000F001000128E2
:1015C00004D0FFE7002007F8090C03E0012007F82A
:1015D000090CFFE717F8090C03B080BD80B56F4612
:1015E00082B007F8010C47F23631C0F20001781ED4
:1015F000FFF7CCFF02B080BD80B56F4686B0019288
:101600000290039102F02DF868B9FFE7019B47F6BD
:101610004C30C0F200000490D621059140F2AD118B
:10162000002204F03CFF06B080BD80B56F4686B056
:10163000009201900291039002F013F868B9FFE75D
:10164000009B47F62240C0F200000490D72105918C
:1016500040F2AF11002204F022FF06B080BD80B539
:101660006F4682B040F23C00C2F200000078C00732
:1016700050B9FFE740F23C01C2F2000101200870BE
:1016800000F014F802B080BD47F6F940C0F2000047
:101690001B2101F097FF47F61452C0F2000204F03C
:1016A00014FF80B56F4601F0B7FF80BD80B56F466F
:1016B000FFF7A3FDFFF783FDFFF786FDFFF789FD29
:1016C000FFF732FDFFF758FDFFF729FDFFF772FD29
:1016D000FFF76BFDFFF79FFEFFF7A2FEFFF7D7FEB8
:1016E000FFF7DAFEFFF77AFDFFF77DFDFFF770FEEB
:1016F000FFF747FDFFF74AFDFFF74DFDFFF750FDF0
:10170000FFF770FEFFF773FEFFF776FEFFF779FE37
:10171000FFF77CFEFFF7B3FCFFF7B6FCFFF7B9FC61
:10172000FFF7BCFCFFF7BFFCFFF7C2FCFFF7C5FCEF
:10173000FFF7C8FCFFF779FEFFF77CFEFFF77FFE9F
:10174000FFF782FEFFF785FEFFF788FEFFF78BFEAF
:10175000FFF78EFEFFF791FEFFF794FEFFF7A1FE65
:10176000FFF7A4FEFFF7A7FEFFF7AAFEFFF7ADFE07
:10177000FFF7B0FEFFF7B3FEFFF7B6FEFFF7B9FEC7
:10178000FFF7BCFEFFF7BFFEFFF7C2FEFFF7C5FE87
:10179000FFF7C8FEFFF7CBFEFFF7CEFEFFF7D1FE47
:1017A000FFF7D4FEFFF7D7FEFFF7DAFEFFF7DDFE07
:1017B000FFF7E0FEFFF78BFCFFF78EFCFFF791FCD5
:1017C000FFF794FCFFF797FCFFF79AFCFFF71AFD71
:1017D000FFF71DFDFFF720FDFFF723FDFFF726FDB7
:1017E000FFF729FDFFF72CFDFFF72FFDFFF732FD77
:1017F000FFF735FDFFF738FDFFF73BFDFFF73EFD37
:10180000FFF741FDFFF744FDFFF747FDFFF74AFDF6
:10181000FFF74DFDFFF750FDFFF753FDFFF756FDB6
:10182000FFF759FDFFF75CFDFFF75FFDFFF762FD76
:10183000FFF765FDFFF768FDFFF76BFDFFF76EFD36
:10184000FFF771FDFFF774FDFFF777FDFFF77AFDF6
:10185000FFF77DFDFFF780FDFFF783FDFFF786FDB6
:10186000FFF789FDFFF78CFDFFF78FFDFFF792FD76
:10187000FFF795FDFFF798FDFFF79BFDFFF79EFD36
:10188000FFF7B6FCFFF746FCFFF73FFCFFF79BFDB9
:10189000FFF74FFCFFF752FCFFF755FCFFF758FC32
:1018A000FFF75BFCFFF75EFCFFF761FCFFF795FDC0
:1018B00080BD80B56F4681B001B080BD80B56F46F8
:1018C00081B001B080BD80B56F4681B001B080BDF0
:1018D00080B56F4681B001B080BD80B56F4681B0E4
:1018E00001B080BD80B56F4681B001B080BD80B5CC
:1018F0006F4681B001B080BD80B56F4681B001B048
:1019000080BD80B56F4681B001B080BD80B56F46A7
:1019100081B001B080BD80B56F4681B001B080BD9F
:1019200080B56F4681B001B080BD80B56F4681B093
:1019300001B080BD80B56F4681B001B080BD80B57B
:101940006F4681B001B080BD80B56F4681B001B0F7
:1019500080BD80B56F4681B001B080BD80B56F4657
:1019600081B001B080BD80B56F4681B001B080BD4F
:1019700080B56F4681B001B080BD80B56F4681B043
:1019800001B080BD80B56F4681B001B080BD80B52B
:101990006F4681B001B080BD80B56F4681B001B0A7
:1019A00080BD80B56F4681B001B080BD80B56F4607
:1019B00081B001B080BD80B56F4681B001B080BDFF
:1019C00080B56F4681B001B080BD80B56F4681B0F3
:1019D00001B080BD80B56F4681B001B080BD80B5DB
:1019E0006F4681B001B080BD80B56F4681B001B057
:1019F00080BD80B56F4681B001B080BD80B56F46B7
:101A000081B001B080BD80B56F4681B001B080BDAE
:101A100080B56F4681B001B080BD80B56F4681B0A2
:101A200001B080BD80B56F4681B001B080BD80B58A
:101A30006F4681B001B080BD80B56F4681B001B006
:101A400080BD80B56F4681B001B080BD80B56F4666
:101A500081B001B080BD80B56F4681B001B080BD5E
:101A600080B56F4681B001B080BD80B56F4681B052
:101A700001B080BD80B56F4681B001B080BD80B53A
:101A80006F4681B001B080BD80B56F4681B001B0B6
:101A900080BD80B56F4681B001B080BD80B56F4616
:101AA00081B001B080BD80B56F4681B001B080BD0E
:101AB00080B56F4681B001B080BD80B56F4681B002
:101AC00001B080BD80B56F4681B001B080BD80B5EA
:101AD0006F4681B001B080BD80B56F4681B001B066
:101AE00080BD80B56F4681B001B080BD80B56F46C6
:101AF00081B001B080BD80B56F4681B001B080BDBE
:101B000080B56F4681B001B080BD80B56F4681B0B1
:101B100001B080BD80B56F4681B001B080BD80B599
:101B20006F4681B001B080BD80B56F4681B001B015
:101B300080BD80B56F4681B001B080BD80B56F4675
:101B400081B001B080BD80B56F4681B001B080BD6D
:101B500080B56F4681B001B080BD80B56F4681B061
:101B600001B080BD80B56F4681B001B080BD80B549
:101B70006F4681B001B080BD80B56F4681B001B0C5
:101B800080BD80B56F4681B001B080BD80B56F4625
:101B900081B001B080BD80B56F4681B001B080BD1D
:101BA00080B56F4681B001B080BD80B56F4681B011
:101BB00001B080BD80B56F4681B001B080BD80B5F9
:101BC0006F4681B001B080BD80B56F4681B001B075
:101BD00080BD80B56F4681B001B080BD80B56F46D5
:101BE00081B001B080BD80B56F4681B001B080BDCD
:101BF00080B56F4681B001B080BD80B56F4681B0C1
:101C000001B080BD80B56F4681B001B080BD80B5A8
:101C10006F4681B001B080BD80B56F4681B001B024
:101C200080BD80B56F4681B001B080BD80B56F4684
:101C300081B001B080BD80B56F4681B001B080BD7C
:101C400080B56F4681B001B080BD80B56F4681B070
:101C500001B080BD80B56F4681B001B080BD80B558
:101C60006F4681B001B080BD80B56F4681B001B0D4
:101C700080BD80B56F4681B001B080BD80B56F4634
:101C800081B001B080BD80B56F4681B001B080BD2C
:101C900080B56F4681B001B080BD80B56F4681B020
:101CA00001B080BD80B56F4681B001B080BD80B508
:101CB0006F4681B001B080BD80B56F4681B001B084
:101CC00080BD80B56F4681B001B080BD80B56F46E4
:101CD00081B001B080BD80B56F4681B001B080BDDC
:101CE00080B56F4681B001B080BD80B56F4681B0D0
:101CF00001B080BD80B56F4681B001B080BD80B5B8
:101D00006F4681B001B080BD80B56F4681B001B033
:101D100080BD80B56F4681B001B080BD80B56F4693
:101D200081B001B080BD80B56F4681B001B080BD8B
:101D300080B56F4681B001B080BD80B56F4681B07F
:101D400001B080BD80B56F4681B001B080BD80B567
:101D50006F4681B001B080BD80B56F4681B001B0E3
:101D600080BD80B56F4681B001B080BD80B56F4643
:101D700081B001B080BD80B56F4681B001B080BD3B
:101D800080B56F4681B001B080BD80B56F4681B02F
:101D900001B080BD80B56F4681B001B080BD80B517
:101DA0006F4681B001B080BD80B56F4681B001B093
:101DB00080BD80B56F4682B0009001914FF0FF3238
:101DC00000F002F802B080BD80B56F468EB003907F
:101DD00004910592039801900B900C9047F62452C1
:101DE000C0F200020421FFF707FC019800680D9083
:101DF0000D9802900A90059A10400499114088426B
:101E000008D0FFE702980499C043059A11400842A0
:101E100011D103E0012007F81D0C10E003A8079082
:101E200004A8089005A8099007A8FFF7F7F8002074
:101E300007F81D0C03E0022007F81D0CFFE717F858
:101E40001D0C0EB080BD80B56F46D4B008901491C3
:101E50004EF20000C4F2010015902C902D9040F23B
:101E600004502E902F904EF20450C4F20100309096
:101E700030984F900C900CA809904A9000204990FF
:101E800049A800F0E5F8099849990B914B904C91BD
:101E90000C980A904D904E9147F66852C0F200029D
:101EA0000421FFF7C2FB0A990B980860FFE74EF286
:101EB0000000C4F20100229023904FF4806024902F
:101EC00025904EF20040C4F20100269026985190D1
:101ED0000E900EA83F900E9807904090419047F6C4
:101EE0007852C0F200020421FFF786FB07980068D1
:101EF000429042980D900DA835900D9800F0010089
:101F000036900028D3D0FFE7089A1068516892688D
:101F1000006805900968126861EA0201069116904E
:101F2000179147F63452C0F200020421FFF77DFBFF
:101F300005990698086001F05DFBFFE74EF200008E
:101F4000C4F201001D901E904FF480601F902090FD
:101F50004EF20040C4F2010021902198529010905E
:101F600010A83B90109804903C903D9047F6785212
:101F7000C0F200020421FFF73FFB049800683E9086
:101F80003E980F900FA833900F9800F00100349006
:101F90000028D3D0FFE74EF20000C4F201002790E2
:101FA000289040F2045029902A904EF20450C4F236
:101FB00001002B902B985090119011A80190449003
:101FC0000020439043A800F054F8019843990391EE
:101FD00045904691119802904790489147F6685273
:101FE000C0F200020421FFF720FB02990398086069
:101FF000FFE74EF20000C4F20100189019904FF470
:1020000080601A901B904EF20040C4F201001C90B8
:102010001C985390139013A8379013980090389001
:10202000399047F67852C0F200020421FFF7E4FA33
:10203000009800683A903A98129012A8319012983D
:1020400000F0010032900028D3D0FFE754B080BDEB
:1020500080B56F4684B0014601910291012207F8D4
:10206000022C086807F8012C62F30100086004B034
:1020700080BD80B56F4682B0019002B080BDD4D4DF
:10208000F0B503AF2DE9000FADF6943D4790FFF793
:1020900008FB4FF000088DF827814FF080503D90ED
:1020A0007C904CF20001C4F2000141917D91CDF889
:1020B0008C15CDF89085CDF894154FF4A461CDF82A
:1020C0009815CDF89C154CF22051C4F20001CDF8C2
:1020D000A015DDF8A01547F87C1C4A91DA90DB903A
:1020E00040F204403E90DC90DD9040F20440C1F2AA
:1020F00000003F90DE90DE98CDF8D004DF90E090B5
:10210000CDF88483CDF88883E390E39847F8500CAA
:102110004B904BA8CDF800094B982D90CDF80409B1
:10212000CDF8080947F67852C0F200024092042127
:102130004391FFF761FA2D9843990068CDF80C0997
:10214000DDF80C494AA8CDF8D008CDF8D4484A9D0E
:10215000CDF8D858CDF8DC4847F66852C0F20002F6
:1021600044922846FFF761FADDF8F4C03E9B3F98A1
:10217000409A4399DDF804E12C60CDF874E501261E
:10218000CDF87865CDF87CE540F2245ECDF880E5A9
:10219000CDF884E54CF2245EC4F2000ECDF888E55B
:1021A000DDF888E547F878ECCDF830E1CDF854C398
:1021B000CDF858C3D793D893D990D998CDF8D404F3
:1021C000E490E590E691E7910430E890E89847F8CC
:1021D0003C0C4D904DA8CDF8B0094D982E90CDF8FF
:1021E000B409CDF8B809FFF707FA2E984399449A35
:1021F0000068CDF8BC09DDF8BC494CA8CDF8C00892
:10220000CDF8C4484C9DCDF8C858CDF8CC482846E8
:10221000FFF70BFADDF8F4C03E9B3F98409A4399D4
:10222000DDF804E12C60CDF85CE50225CDF86055C1
:10223000CDF864E54FF4A56ECDF868E5CDF86CE512
:102240004CF2285EC4F2000ECDF870E5DDF870E5C2
:1022500047F874ECCDF838E1CDF840C3CDF844C36D
:10226000D293D393D490D498CDF8D804E990EA903F
:102270000823EB93EC930830ED90ED9847F8C40CED
:102280004F904FA8CDF850094F982F90CDF8540992
:10229000CDF85809FFF7B0F92F984399449A006890
:1022A000CDF85C09DDF85C494EA8CDF8B008CDF852
:1022B000B448DDF83891CDF8B898CDF8BC48484618
:1022C000FFF7B3F9DDF8F4C03E9B3F98409A43997D
:1022D000DDF804E1C9F80040CDF844E50324CDF869
:1022E0004845CDF84CE540F22C5ECDF850E5CDF8F0
:1022F00054E54CF22C5EC4F2000ECDF858E5DDF842
:1023000058E547F870ECCDF840E1CDF82CC3CDF896
:1023100030C3CD93CE93CF90CF98CDF8DC04EE9020
:10232000EF900C23F093F1930C30F290F29847F871
:10233000CC0C519051A8CDF8700951983090CDF83F
:102340007409CDF87809FFF757F930984399449A02
:102350000068CDF87C09DDF87C9950A8CDF8A0087C
:10236000CDF8A498DDF840A1CDF8A8A8CDF8AC9898
:102370005046FFF75AF9DDF8F4C03E9B3F98409A6B
:102380004399DDF804E1CAF80090CDF82CE5CDF8CA
:102390003015CDF834E54FF4A66ECDF838E5CDF81C
:1023A0003CE54CF2305EC4F2000ECDF840E5DDF8BD
:1023B00040E547F86CECCDF848E1CDF818C3CDF80E
:1023C0001CC3C893C993CA90CA98CDF8E004F3908F
:1023D000F4901023F593F6931030F790F79847F8A0
:1023E0004C0C539053A8CDF8100953983190CDF868
:1023F0001409CDF81809FFF7FFF831984399449A6A
:102400000068CDF81C09DDF81C9952A8CDF8900899
:10241000CDF89498DDF848A1CDF898A8CDF89C980F
:102420005046FFF702F9DDF8F4C03E9B3F98409A12
:102430004399DDF804E1CAF80090CDF814E54FF0B7
:102440000509CDF81895CDF81CE540F2345ECDF8BD
:1024500020E5CDF824E54CF2345EC4F2000ECDF850
:1024600028E5DDF828E547F868ECCDF850E1CDF82F
:1024700004C3CDF808C3C393C493C590C598CDF8E1
:10248000E404F890F9901423FA93FB931430FC9031
:10249000FC9847F8480C559055A8CDF84009559838
:1024A0003290CDF84409CDF84809FFF7A5F83298E5
:1024B0004399449A0068CDF84C09DDF84CA954A81A
:1024C000CDF88008CDF884A8DDF850B1CDF888B8F3
:1024D000CDF88CA85846FFF7A8F8DDF8F4C03E9B6D
:1024E0003F98409A4399DDF804E1CBF800A0CDF87D
:1024F0001CE6CDF82086CDF824E64FF4A86ECDF882
:1025000028E6CDF82CE64CF2405EC4F2000ECDF881
:1025100030E6DDF830E647F894ECCDF858E1CDF838
:10252000F0C2CDF8F4C2BE93BF93C090C098CDF86E
:10253000E804FD90FE901823FF93CDF80034183086
:10254000CDF80404DDF8040447F8300C579057A880
:10255000CDF8D00957983390CDF8D409CDF8D809E3
:10256000FFF74AF833984399449A0068CDF8DC099C
:10257000DDF8DCA956A8CDF87008CDF874A8DDF810
:1025800058B1CDF878B8CDF87CA85846FFF74DF88B
:10259000DDF8F4C03E9B3F98409A4399DDF804E192
:1025A000CBF800A0CDF804E6CDF80866CDF80CE62F
:1025B00040F2445ECDF810E6CDF814E64CF2445EED
:1025C000C4F2000ECDF818E6DDF818E647F890ECF6
:1025D000CDF860E1CDF8DCC2CDF8E0C2B993BA9392
:1025E000BB90BB98CDF8EC04CDF80804CDF80C04F2
:1025F0001C23CDF81034CDF814341C30CDF8180459
:10260000DDF8180447F8C80C599059A8CDF8200AED
:1026100059983490CDF8240ACDF8280AFEF7ECFF3B
:1026200034984399449A0068CDF82C0ADDF82CAA16
:1026300058A8CDF86008CDF864A8DDF860B1CDF8F1
:1026400068B8CDF86CA85846FEF7EFFFDDF8F4C087
:102650003E9B3F98409A4399DDF804E1CBF800A0F7
:10266000CDF8ECE5CDF8F055CDF8F4E54FF4A96ED2
:10267000CDF8F8E5CDF8FCE54CF2485EC4F2000E6A
:10268000CDF800E6DDF800E647F88CECCDF868E11F
:10269000CDF8C8C2CDF8CCC2B493B593B690B69875
:1026A000CDF8F004CDF81C04CDF820042023CDF89B
:1026B0002434CDF828342030CDF82C04DDF82C0457
:1026C00047F8440C5B905BA8CDF8000A5B98359006
:1026D000CDF8040ACDF8080AFEF78EFF3598439925
:1026E000449A0068CDF80C0ADDF80CAA5AA8CDF877
:1026F0005008CDF854A8DDF868B1CDF858B8CDF839
:102700005CA85846FEF791FFDDF8F4C03E9B3F9869
:10271000409A4399DDF804E1CBF800A0CDF8D4E568
:10272000CDF8D845CDF8DCE540F24C5ECDF8E0E5DB
:10273000CDF8E4E54CF24C5EC4F2000ECDF8E8E5CD
:10274000DDF8E8E547F888ECCDF870E1CDF8B4C2E3
:10275000CDF8B8C2AF93B093B190B198CDF8F4046E
:10276000CDF83004CDF834042423CDF83834CDF836
:102770003C342430CDF84004DDF8400447F8C00C68
:102780005D905DA8CDF8A0095D983690CDF8A409BC
:10279000CDF8A809FEF730FF36984399449A0068AF
:1027A000CDF8AC09DDF8ACA95CA8CDF84008CDF8AF
:1027B00044A8DDF870B1CDF848B8CDF84CA858461B
:1027C000FEF733FFDDF8F4C03E9B3F98409A4399F3
:1027D000DDF804E1CBF800A0CDF8BCE5CDF8C015DC
:1027E000CDF8C4E54FF4AA6ECDF8C8E5CDF8CCE538
:1027F0004CF2505EC4F2000ECDF8D0E5DDF8D0E525
:1028000047F884ECCDF878E1CDF8A0C2CDF8A4C2A9
:10281000AA93AB93AC90AC98CDF8F804CDF84404EF
:10282000CDF848042823CDF84C34CDF85034283066
:10283000CDF85404DDF8540447F8D00C5F905FA83D
:10284000CDF820095F983790CDF82409CDF82809F4
:10285000FEF7D2FE37984399449A0068CDF82C09C8
:10286000DDF82CA95EA8CDF83008CDF834A8DDF845
:1028700078B1CDF838B8CDF83CA85846FEF7D5FE6B
:10288000DDF8F4C03E9B3F98409A4399DDF804E19F
:10289000CBF800A0CDF8A4E5CDF8A895CDF8ACE52F
:1028A00040F2545ECDF8B0E5CDF8B4E54CF2545E9C
:1028B000C4F2000ECDF8B8E5DDF8B8E547F880ECD5
:1028C000CDF880E1CDF88CC2CDF890C2A593A69347
:1028D000A790A798CDF8FC04CDF85804CDF85C0477
:1028E0002C23CDF86034CDF864342C30CDF8680456
:1028F000DDF8680447F8380C619061A8CDF8F0095C
:1029000061983890CDF8F409CDF8F809FEF774FE17
:1029100038984399449A0068CDF8FC09DDF8FC9991
:1029200060A8CDF82008CDF82498DDF880A1CDF876
:1029300028A8CDF82C985046FEF777FEDDF8F4C0B5
:102940003E9B3F98409A4399DDF804E1CAF8009015
:10295000CDF894E6CDF89886CDF89CE64FF4AC6EB1
:10296000CDF8A0E6CDF8A4E64CF2605EC4F2000E0D
:10297000CDF8A8E6DDF8A8E647F8A8ECCDF888E1A0
:10298000CDF878C2CDF87CC2A093A193A290A29872
:10299000CDF80005CDF86C04CDF870043023CDF8E7
:1029A0007434CDF878343030CDF87C04DDF87C0414
:1029B00047F8D80C639063A8CDF8100A6398399053
:1029C000CDF8140ACDF8180AFEF716FE3998439987
:1029D000449A0068CDF81C0ADDF81C8A62A8CDF87C
:1029E0001008CDF81488DDF88891CDF81898CDF846
:1029F0001C884846FEF719FEDDF8F4C03E9B3F9860
:102A0000409A4399DDF804E1C9F80080CDF87CE6EE
:102A1000CDF88066CDF884E640F2645ECDF888E6B5
:102A2000CDF88CE64CF2645EC4F2000ECDF890E670
:102A3000DDF890E647F8A4ECCDF890E1CDF864C25B
:102A4000CDF868C29B939C939D909D98CDF804050A
:102A5000CDF88004CDF884043423CDF88834CDF843
:102A60008C343430CDF89004DDF8900447F8200C15
:102A7000659065A8CDF8300965983A90CDF834098D
:102A8000CDF83809FEF7B8FD3A984399449A0068A2
:102A9000CDF83C09DDF83C6964A8CDF80008CDF814
:102AA0000468DDF89081CDF80888CDF80C684046C0
:102AB000FEF7BBFDDDF8F4C03E9B3F98409A43997A
:102AC000DDF804E1C8F80060CDF864E6CDF868569A
:102AD000CDF86CE64FF4AD6ECDF870E6CDF874E647
:102AE0004CF2685EC4F2000ECDF878E6DDF878E6C8
:102AF00047F8A0ECCDF898E1CDF850C2CDF854C21B
:102B00009693979398909898CDF80805CDF89404EB
:102B1000CDF898043823CDF89C34CDF8A034383063
:102B2000CDF8A404DDF8A40447F8BC0C679067A8AE
:102B3000CDF8600967983B90CDF86409CDF8680935
:102B4000FEF75AFD3B984399449A0068CDF86C090A
:102B5000DDF86C5966A8CDF8F007CDF8F457669EFD
:102B6000CDF8F867CDF8FC573046FEF75EFDDDF88E
:102B7000F4C03E9B3F98409A4399DDF804E13560EC
:102B8000CDF84CE6CDF85046CDF854E640F26C5EF8
:102B9000CDF858E6CDF85CE64CF26C5EC4F2000E5F
:102BA000CDF860E6DDF860E647F89CECCDF8A0E1F2
:102BB000CDF83CC2CDF840C29193929393909398F4
:102BC000CDF80C05CDF8A804CDF8AC043C23CDF825
:102BD000B034CDF8B4343C30CDF8B804DDF8B804E6
:102BE00047F8340C699069A8CDF8E00969983C90E1
:102BF000CDF8E409CDF8E809FEF7FEFC3C984399CE
:102C0000449A0068CDF8EC09DDF8EC4968A8CDF8E5
:102C1000E007CDF8E447689DCDF8E857CDF8EC47DC
:102C20002846FEF702FDDDF8F4C03E9B3F98409A2F
:102C30004399DDF804E12C60CDF834E6CDF8381680
:102C4000CDF83CE64FF4AE6ECDF840E6CDF844E664
:102C50004CF2705EC4F2000ECDF848E6DDF848E6AE
:102C600047F898ECCDF8A8E1CDF828C2CDF82CC2F1
:102C70008C938D938E908E98CDF81005CDF8BC0472
:102C8000CDF8C0044023CDF8C434CDF8C83440306A
:102C9000CDF8CC04DDF8CC0447F8400C6B906BA861
:102CA000CDF8C0096B984290CDF8C409CDF8C80999
:102CB000FEF7A2FC42984399449A0068CDF8CC09EB
:102CC000DDF8CC3946936AA8CDF8D007CDF8D437D3
:102CD0006A984590CDF8D807CDF8DC37FEF7A5FC0B
:102CE000459A46994798116000790146489130B15C
:102CF000FFE7489801281DD0FFE735E0FEDE40F2EF
:102D00000410C1F200002C908590869047F6445242
:102D1000C0F200020421FEF76FFC2C980068879037
:102D200087987E90010AC0F307208DF8FF1145288F
:102D300038D819E041F20820C1F200000021FFF765
:102D400038F88DF8B20147F23631C0F200010DF5C6
:102D5000D97000F040FC01469DF82701084300F0BF
:102D600001008DF82701FFE712212B91809141F29C
:102D70000020C1F20000FFF71CF82B998DF8B30179
:102D800041F20420C1F20000FFF713F88DF8B401FE
:102D900047F23631C0F200010DF2B31000F01BFC17
:102DA000B8BB2CE041F20820C1F200005A212A9160
:102DB000FEF7FFFF8DF8B10147F23631C0F2000196
:102DC0000DF2B11000F007FC2A9902469DF8270188
:102DD000104300F001008DF8270140F25850C4F272
:102DE000000029908890899147F65452C0F2000261
:102DF0000421FEF71AFC29992A980860B4E747F2E3
:102E00003631C0F200016DA800F0E5FB8DF8B50188
:102E100003E001208DF8B501FFE79DF827019DF83B
:102E2000B511084300F001008DF8270147F6645101
:102E3000C0F200010DF2B31000F0CDFB40B9FFE786
:102E400047F66451C0F200016DA800F0C4FBFFE733
:102E50000122819241F20C20C1F200001146FEF7DE
:102E6000B3FF8DF8B60147F23631C0F200010DF51F
:102E7000DB70289000F0AFFB024628989DF82711E0
:102E8000114301F001018DF8271147F66451C0F29A
:102E9000000100F0A0FB4798C078062827D0FFE784
:102EA0004798C1788DF80B12839141F20430C1F23A
:102EB00000000722FEF788FF8DF8B70147F2363190
:102EC000C0F200010DF2B710279000F084FB02461B
:102ED00027989DF82711114301F001018DF8271162
:102EE00047F66451C0F2000100F075FBFFE79DF862
:102EF0002701C00740B9FFE747984FF08041849110
:102F00000078C00710B959E0FEF762F84FF0804032
:102F10002290CDF8E806CDF8EC064FF48070CDF89D
:102F2000F006CDF8F40640F20010C4F20000CDF82F
:102F3000F806DDF8F80647F8B00C6E906EA8CDF8EC
:102F4000C00700212191CDF8C4176E982090CDF8CC
:102F5000C807CDF8CC1747F66852C0F20002249299
:102F600004212391FEF761FBDDF880C0219B2298AC
:102F70002399249ACCF80030CDF8AC06CDF8B006F1
:102F8000CDF8B436CDF8B836CDF8BC06DDF8BC06C1
:102F900047F8240C6F906FA8CDF8F0080123269312
:102FA000CDF8F4386F982590CDF8F808CDF8FC38B6
:102FB000FEF73BFB2599269808600AE04798407980
:102FC0001F901F99DFE811F035007000AB00E6009C
:102FD00021014FF08040CDF8D406CDF8D8064FF44B
:102FE0008070CDF8DC06CDF8E00640F20010C4F2A7
:102FF0000000CDF8E406DDF8E40647F8AC0C70906C
:1030000070A8CDF8900970981E90CDF89409CDF86D
:10301000980947F67852C0F200020421FEF7ECFA54
:103020001E980068CDF89C09DDF89C090028D0D0D6
:10303000C4E74FF08040CDF87407CDF878074FF41F
:10304000A360CDF87C07CDF8800740F21850C4F299
:103050000000CDF88407DDF8840747F8640C719010
:1030600071A81B90CDF8940A0020CDF8900A0DF5B8
:10307000296000F059FA1B98DDF8901A1D91CDF8DF
:10308000980ACDF89C1A71981C90CDF8A00ACDF83A
:10309000A41A47F66852C0F200020421FEF7C5FAEE
:1030A0001C991D980860EBE04FF08040CDF8600758
:1030B000CDF864074FF4A360CDF86807CDF86C072E
:1030C00040F21850C4F20000CDF87007DDF8700728
:1030D00047F8600C729072A8189047F8EC0C00202A
:1030E00047F8F00CA7F1F00000F0EDF9189857F848
:1030F000F01C1A9147F8E80C47F8E41C72981990F4
:1031000047F8E00C47F8DC1C47F66852C0F20002B2
:103110000421FEF78AFA19991A980860B0E04FF076
:103120008040CDF84C07CDF850074FF4A360CDF8A0
:103130005407CDF8580740F21850C4F20000CDF8FB
:103140005C07DDF85C0747F85C0C739073A815907A
:10315000CDF87C0A0020CDF8780A0DF6782000F032
:10316000A1F91598DDF8781A1791CDF8800ACDF8F5
:10317000841A73981690CDF8880ACDF88C1A47F601
:103180006852C0F200020421FEF74FFA1699179810
:10319000086075E04FF08040CDF83807CDF83C0767
:1031A0004FF4A360CDF84007CDF8440740F2185023
:1031B000C4F20000CDF84807DDF8480747F8580C7E
:1031C000749074A81290CDF8640A0020CDF8600ABB
:1031D0000DF5266000F088F91298DDF8601A149158
:1031E000CDF8680ACDF86C1A74981390CDF8700A6F
:1031F000CDF8741A47F66852C0F200020421FEF7B7
:1032000014FA1399149808603AE04FF08040CDF812
:103210002407CDF828074FF4A360CDF82C07CDF88C
:10322000300740F21850C4F20000CDF83407DDF842
:10323000340747F8540C759075A80F90CDF84C0AD8
:103240000020CDF8480A0DF6482000F09CF90F98B0
:10325000DDF8481A1191CDF8500ACDF8541A759836
:103260001090CDF8580ACDF85C1A47F66852C0F2B3
:1032700000020421FEF7D9F9109911980860FFE7C0
:103280004FF080400A90CDF81007CDF814074FF4A6
:103290008270CDF81807CDF81C0740F20410C4F274
:1032A0000000CDF82007DDF8200747F8B80C76902D
:1032B00076A8CDF8B00700210991CDF8B41776981B
:1032C0000890CDF8B807CDF8BC1747F66852C0F2A1
:1032D00000020C9204210B91FEF7A7F9DDF820C043
:1032E000099B0A980B990C9ACCF80030CDF8C006CF
:1032F000CDF8C4060820CDF8C806CDF8CC060820C5
:10330000C4F20000CDF8D006DDF8D00647F8280C4E
:10331000779077A8CDF8E00801230E93CDF8E43834
:1033200077980D90CDF8E808CDF8EC38FEF77DF9E8
:103330000D990E980860FFE74FF08040CDF8FC062D
:10334000CDF800074FF48270CDF80407CDF80807D8
:1033500040F20410C4F20000CDF80C07DDF80C07B1
:1033600047F8B40C789078A8CDF880097898079041
:10337000CDF88409CDF8880947F67852C0F20002EA
:103380000421FEF739F907980068CDF88C09DDF8BB
:103390008C090028D0D0FFE747984078C00730B9A3
:1033A000FFE747988078C007002840D13AE04FF007
:1033B0008040CDF89C07CDF8A0074FF4B060CDF861
:1033C000A407CDF8A80740F28050C4F20000CDF861
:1033D000AC07DDF8AC0747F8D40C799079A80490D5
:1033E000CDF8AC0A0020CDF8A80A0DF6A82000F010
:1033F000BBF80498DDF8A81A0691CDF8B00A47F892
:10340000FC1C7998059047F8F80C47F8F41C47F62F
:103410006852C0F200020421FEF707F905990698E8
:103420000860BEE70DF6943DBDE8000FF0BD4FF01B
:103430008040CDF88807CDF88C074FF4AF60CDF809
:103440009007CDF8940740F27850C4F20000CDF810
:103450009807DDF8980747F82C0C7A907AA8019025
:10346000CDF8340A0020CDF8300A0DF5236000F0C5
:103470006CF80198DDF8301A0391CDF8380ACDF8D0
:103480003C1A7A980290CDF8400ACDF8441A47F6D3
:103490006852C0F200020421FEF7C7F802990398AF
:1034A0000860BFE780B56F4684B001460191029184
:1034B000012207F8022C086807F8012C62F30100CA
:1034C000086004B080BD80B56F4684B001460191AC
:1034D0000291022207F8022C086807F8012C62F317
:1034E0000100086004B080BD80B56F4688B0014619
:1034F00001910691012007F8020C0A6807F8010CF7
:1035000060F301020A60049107F8090C086840F4AE
:10351000003008600291002007F8110C086820F4C0
:103520008030086008B080BD80B56F4684B0014629
:1035300001910291002207F8022C086820F0030094
:1035400007F8012C086004B080BD80B56F4684B0D8
:10355000014601910291012007F8010C086840F032
:103560000100086004B080BD80B56F4684B001469C
:1035700001910291012007F8010C086840F0010058
:10358000086004B080BD80B56F4688B001460191E7
:103590000691012007F8020C0A6807F8010C60F395
:1035A00001020A60049107F8090C0A6842F400322B
:1035B0000A60029107F8110C086840F48030086036
:1035C00008B080BD80B56F4682B00090019149007F
:1035D000013102B080BD80B56F4684B0009001918A
:1035E0000078029009780391401AB0FA80F04009FF
:1035F00004B080BD80B56F4682B004200190FDF715
:10360000ADFC0198BFF34F8FFDF7A8FC02B080BD61
:1036100080B56F4600BF80BD80B56F4682B001F0B7
:10362000D7FA07F8010C07F8030CFDF7A8FFF81EFE
:1036300000F04EF802B080BD80B56F4682B00190B8
:1036400000F4E0600421C0F2FA51084302B080BDEA
:1036500080B56F4681B00090B0FA80F0400901B0AB
:1036600080BD80B56F4688B00191029003900491AF
:103670004FF0553000EA5100081A4FF0333101EA9B
:10368000900120F0CC30084400EB101020F0F03016
:103690004FF001314843000E05900598012809D1EB
:1036A000FFE70298019901390840B0FA80F040091B
:1036B00008B080BD47F68850C0F2000006902A216D
:1036C000079147F6B452C0F20002552102F0FDFE08
:1036D00080B56F4684B001900290007807F8010C25
:1036E00001F07BFA04B080BD80B56F46FFE7FEE7CE
:1036F00080B56F4680BD80B56F4681B0009001B047
:1037000080BD80B56F4686B001910290049100F0B3
:103710004AF90199024602980592059A0392039A82
:103720000260416006B080BD80B56F4682B00190F6
:1037300000F0FDF802B080BD80B56F4684B0009106
:10374000014600980191029000F0B4F803901C30FB
:1037500000F04CF847F6C451C0F2000100F09EFFA3
:1037600001460098884704B080BD80B56F4684B09C
:10377000009001910290019800F09CF80099183097
:103780000391002200F052FD009801A900F04EF8CC
:1037900004B080BD80B56F468AB00190029003915D
:1037A00009680590069107910990002107F8051C0A
:1037B0006A4607A9116004227B1F114600F058FCDD
:1037C00000F0A3FF17F8050CC00728B1FFE7019828
:1037D000406800F060F8FFE70AB080BD80B56F4632
:1037E00082B000900190006802B080BD80B56F4645
:1037F00082B000900190006802B080BD80B56F4635
:1038000083B0009001910290016003B080BD80B54B
:103810006F4681B0009001B080BD80B56F4682B028
:103820000090019100F02DF902B080BD80B56F4687
:1038300082B000900191FFF7ADFF02B080BD80B56E
:103840006F4681B0009001B080BD80B56F4682B0F8
:10385000019000F038F800F0E6F802B080BD80B5C5
:103860006F4682B0019047F6D451C0F2000100F0DB
:10387000FAFE02B080BD80B56F4682B0019000F0C4
:1038800012F847F6D451C0F2000100F0ECFE00F04F
:10389000E3FE02B080BD80B56F4682B0019000F0BB
:1038A0005EFF02B080BD80B56F4682B0009001908F
:1038B00002B080BD80B56F4682B00090684601902E
:1038C000009802B080BD80B56F4682B0019047F687
:1038D000E451C0F2000100F038F902B080BD80B5BB
:1038E0006F4684B00090039101A8FFF70AFF00998A
:1038F0000198029A4A60086004B080BD80B56F46A6
:1039000082B00190FFF710FF02B080BD80B56F4616
:1039100082B000900191FFF728FF02B080BD80B512
:103920006F4682B0019000F0F1F802B080BD80B522
:103930006F4688B004900021032200F0BFFB059081
:1039400000F028F900F0BBFE0390FFE70398F8B100
:10395000FFE7039801900690FFF7ACFF1430FFF7E4
:103960003DFF014601980391FFF7A4FF009010303E
:103970000790012000F016FB00981130002211463C
:1039800000F0FDF90199A7F11500FFF7D5FEDDE77D
:1039900008B080BD80B56F4684B002900390FFF7F9
:1039A00092FF04B080BD80B56F4684B0002000F067
:1039B00073FB03900398029002980190019804B061
:1039C00080BD80B56F4686B0009101460098029197
:1039D0000391049000F0B0F8029A01460098126832
:1039E000117000F0D7F800F07DFE014602980191B9
:1039F000059140680068FFF75DFF01991430FFF7FB
:103A0000FDFE029840680068FFF74DFF0146012067
:103A100006B080BD80B56F4684B002900390FFF77A
:103A200052FF04B080BD80B56F4688B00190019808
:103A3000FFF740FF01460091029000F11001049150
:103A4000059001A90691002107F8111C012107F832
:103A5000111C1130032200F0C7F807F8010C40B91F
:103A6000FFE70098002107F8111C01A9FFF7D5FE18
:103A7000FFE717F8110CC00708B1FFE7FFE708B030
:103A800080BD80B56F468EB00291059006911830CA
:103A90000021039100F008FB00F03EF847F6F451D6
:103AA000C0F2000100F0E9FD029A03990346049375
:103AB0000890126809900A920B920D9007F8051C65
:103AC0006A460BA9116004227B1F114600F0D0FA50
:103AD00000F01BFE17F8050CC00728B1FFE704989B
:103AE0004068FFF7D8FEFFE70EB080BD80B56F4697
:103AF00084B0019002A84FF0FF31FFF7F0FE01996A
:103B00000298039A4A60086004B080BD80B56F4691
:103B100081B0009001B080BD80B56F4683B0009049
:103B2000029018B9FFE70020019002E00098019090
:103B3000FFE7019803B080BD80B56F4681B000906B
:103B4000B0FA80F0400901B080BD80B56F4684B006
:103B5000019102900390FFE70199029800F004F8A8
:103B6000FFE7029804B080BD80B56F4684B0009135
:103B7000019068B9FFE7009B47F60460C0F20000BF
:103B80000290D221039140F2A511002202F087FC9D
:103B900004B080BD80B56F4684B00190039018B921
:103BA000FFE70020029000E002E0029804B080BD30
:103BB000019847F6D861C0F20001FFF7D5FFFFE793
:103BC00001980290F1E780B56F4682B0034647F650
:103BD000E860C0F200000090C721019140F28F110F
:103BE000002202F05CFCD4D480B56F4692B00A90FB
:103BF0000E908DF83C1007F80B2C012307F80A3CB7
:103C0000002307F8093C109008460B9007F8011CA8
:103C1000D0B20C900C99DFE801F0042344658800D1
:103C2000FEDE0A9800780990FFE709990A9BDDF803
:103C30002CC0C9B2D3E84F0F084503D1C3E842CF27
:103C4000002AF7D10890C9B2411AB1FA81F14909A5
:103C500001290990E9D1FFE7089807F8110C87E0DE
:103C60000A98BFF35F8F00780790FFE707990A9BD8
:103C7000DDF82CC0C9B2D3E84F0F084503D1C3E823
:103C800042CF002AF7D10690C9B2411AB1FA81F1A8
:103C9000490901290790E9D1FFE7069807F8110CB7
:103CA00066E00A9800780590FFE705990A9BDDF821
:103CB0002CC0C9B2D3E84F0F084503D1C3E842CFA7
:103CC000002AF7D10490C9B2411AB1FA81F1490929
:103CD00001290590E9D1FFE70498BFF35F8F07F84A
:103CE000110C45E00A98BFF35F8F00780390FFE75F
:103CF00003990A9BDDF82CC0C9B2D3E84F0F0845E1
:103D000003D1C3E842CF002AF7D10290C9B2411AC9
:103D1000B1FA81F1490901290390E9D1FFE702983D
:103D2000BFF35F8F07F8110C22E00A98BFF35F8F93
:103D300000780190FFE701990A9BDDF82CC0C9B219
:103D4000D3E84F0F084503D1C3E842CF002AF7D18B
:103D50000090C9B2411AB1FA81F1490901290190D3
:103D6000E9D1FFE70098BFF35F8F07F8110CFFE779
:103D700017F8110C002818BF012012B080BD80B5C3
:103D80006F4682B0009007F8021C07F8012C00F083
:103D9000C5F802B080BDD4D480B56F468AB001901A
:103DA000049007F8111CC8B202900299DFE801F0F4
:103DB0000408161C2A00FEDE01980068039027E024
:103DC00047F6AF70C0F2000006902821079147F631
:103DD000D872C0F20002512102F077FB019800680E
:103DE000BFF35F8F039013E047F6E870C0F2000066
:103DF00008903121099148F21C02C0F200026321AF
:103E000002F063FB01980068BFF35F8F0390FFE748
:103E100003980AB080BDD4D480B56F468AB00190B3
:103E2000049007F8111CC8B202900299DFE801F073
:103E30000408161C2A00FEDE01980068039027E0A3
:103E400047F6AF70C0F2000006902821079147F6B0
:103E5000D872C0F20002512102F037FB01980068CD
:103E6000BFF35F8F039013E047F6E870C0F20000E5
:103E700008903121099148F21C02C0F2000263212E
:103E800002F023FB01980068BFF35F8F0390FFE708
:103E900003980AB080BDD4D480B56F468AB0009133
:103EA00001900390049107F8112CD0B2029002996E
:103EB000DFE801F004080E1C2A00FEDE00980199DC
:103EC000086029E000980199BFF35F8F086023E044
:103ED00048F22C00C0F2000006902A21079148F217
:103EE0005802C0F20002552102F0EFFA48F26800D1
:103EF000C0F2000008903221099148F29C02C0F201
:103F00000002652102F0E1FA00980199BFF35F8F8A
:103F10000860BFF35F8FFFE70AB080BD80B56F46D2
:103F20008AB001900B460293049007F8121C07F820
:103F3000112CD0B203900399DFE801F004080E1CA5
:103F40002A00FEDE02980199087029E00298019982
:103F5000BFF35F8F087023E048F22C00C0F200002E
:103F600006902A21079148F25802C0F2000255211A
:103F700002F0ABFA48F26800C0F20000089032216B
:103F8000099148F29C02C0F20002652102F09DFAFC
:103F900002980199BFF35F8F0870BFF35F8FFFE74F
:103FA0000AB080BD80B56F4684B007F8090CC0B276
:103FB00000900099DFE801F0041213141500FEDEF2
:103FC00048F2AC00C0F2000002902921039148F2AF
:103FD000D802C0F20002532102F077FA02E001E0B9
:103FE00000E0FFE704B080BD80B56F4690B09C460E
:103FF00002920A4602990390BB688E46CDF810E003
:104000009646CDF814E0CDF818C007930D9007F848
:10401000062C07F8051CFFF7FFFE0C90FFE70C9934
:1040200006A8FFF7CEFC0A900B910A98012812D13E
:10403000FFE7059B0398DDF810C00B9A0F920C99CF
:10404000EE46CEF800C000F0FDF8089009910898FF
:10405000C00728B907E00C9809900120089003E0F8
:1040600009980C90DBE7FFE70898099910B080BD2C
:1040700080B56F4686B0D7F808C0029007F80A1CD2
:1040800007F8092C0493CDF814C0EE46CEF800C012
:10409000FFF7AAFF06B080BD80B56F4682B00190E1
:1040A0000090009802B080BD80B56F4682B000904D
:1040B00007F8011CFFF770FE02B080BD80B56F46A7
:1040C00097B00F9110901390149107F8052C16904B
:1040D000D0B211901199DFE801F00422426284000D
:1040E000FEDE10980F990D9100680E90FFE70E9973
:1040F000109BDDF834C053E8000F084503D143E8B6
:1041000000C2002AF7D10C90411AB1FA81F1490995
:1041100001290E90EBD1FFE70C98129083E01098E4
:104120000F990A91BFF35F8F00680B90FFE70B991F
:10413000109BDDF828C053E8000F084503D143E881
:1041400000C2002AF7D10990411AB1FA81F1490958
:1041500001290B90EBD1FFE70998129063E01098CA
:104160000F99079100680890FFE70899109BDDF808
:104170001CC053E8000F084503D143E800C2002AE1
:10418000F7D10690411AB1FA81F149090129089045
:10419000EBD1FFE70698BFF35F8F129043E01098D2
:1041A0000F990491BFF35F8F00680590FFE70599B1
:1041B000109BDDF810C053E8000F084503D143E819
:1041C00000C2002AF7D10390411AB1FA81F14909DE
:1041D00001290590EBD1FFE70398BFF35F8F1290A1
:1041E00021E010980F990191BFF35F8F0068029052
:1041F000FFE70299109BDDF804C053E8000F084563
:1042000003D143E800C2002AF7D10090411AB1FA65
:1042100081F1490901290290EBD1FFE70098BFF332
:104220005F8F1290FFE7129817B080BD80B56F4680
:1042300084B00190029107F8012CFFF72DFE04B025
:1042400080BDD4D480B56F469AB007920891844659
:10425000CDF824C0B8680A90CDF840C011911292F0
:1042600007F81A3C07F8190CD8B20B900B99DFE845
:1042700001F0041325374900FEDE0A98C0B201465A
:104280000691002856D0FFE70698022866D0FFE77F
:104290000698042878D047E00A98C0B201460591F4
:1042A000002800F09580FFE70598022800F0A6801E
:1042B000FFE70598042800F0B98035E00A98C0B2FD
:1042C00001460491002800F0C980FFE70498022805
:1042D00000F0DA80FFE70498042800F0EB8023E088
:1042E0000A98C0B201460391002800F0FB80FFE766
:1042F0000398022800F00E81FFE70398042800F0DD
:10430000218111E00A98C0B201460291002800F014
:104310003181FFE70298022800F04481FFE702980C
:10432000042800F05781FFE70A98C0B2012800F086
:10433000778183E10898099BDDF81CC053E8001FD2
:10434000014503D143E800C2002AF7D1081AB0FAA8
:1043500080F040090E918DF83C002DE00898099BF3
:10436000DDF81CC053E8001F014503D143E800C23B
:10437000002AF7D1081AB0FA80F04009BFF35F8F26
:104380000E918DF83C0017E00898099BDDF81CC0E1
:10439000BFF35F8F53E8001F014503D143E800C21C
:1043A000002AF7D1081AB0FA80F04009BFF35F8FF6
:1043B0000E918DF83C00FFE70E98019014909DF847
:1043C0003C0007F8110CC007002840F0208119E1DB
:1043D0000898099BDDF81CC0BFF35F8F53E8001FEE
:1043E000014503D143E800C2002AF7D1081AB0FA08
:1043F00080F040090E918DF83C00DDE70898099B9C
:10440000DDF81CC0BFF35F8F53E8001F014503D1E7
:1044100043E800C2002AF7D1081AB0FA80F0400938
:10442000BFF35F8F0E918DF83C00C5E70898099B9C
:10443000DDF81CC0BFF35F8F53E8001F014503D1B7
:1044400043E800C2002AF7D1081AB0FA80F0400908
:10445000BFF35F8F0E918DF83C00ADE70898099B84
:10446000DDF81CC053E8001F014503D143E800C23A
:10447000002AF7D1081AB0FA80F04009BFF35F8F25
:104480000E918DF83C0097E70898099BDDF81CC059
:1044900053E8001F014503D143E800C2002AF7D1C9
:1044A000081AB0FA80F04009BFF35F8F0E918DF8C3
:1044B0003C0081E70898099BDDF81CC0BFF35F8FC3
:1044C00053E8001F014503D143E800C2002AF7D199
:1044D000081AB0FA80F04009BFF35F8F0E918DF893
:1044E0003C0069E70898099BDDF81CC0BFF35F8FAB
:1044F00053E8001F014503D143E800C2002AF7D169
:10450000081AB0FA80F04009BFF35F8F0E918DF862
:104510003C0051E70898099BDDF81CC0BFF35F8F92
:1045200053E8001F014503D143E800C2002AF7D138
:10453000081AB0FA80F04009BFF35F8F0E918DF832
:104540003C0039E70898099BDDF81CC0BFF35F8F7A
:1045500053E8001F014503D143E800C2002AF7D108
:10456000081AB0FA80F04009BFF35F8F0E918DF802
:104570003C0021E70898099BDDF81CC0BFF35F8F62
:1045800053E8001F014503D143E800C2002AF7D1D8
:10459000081AB0FA80F04009BFF35F8F0E918DF8D2
:1045A0003C0009E70898099BDDF81CC0BFF35F8F4A
:1045B00053E8001F014503D143E800C2002AF7D1A8
:1045C000081AB0FA80F04009BFF35F8F0E918DF8A2
:1045D0003C00F1E60898099BDDF81CC0BFF35F8F33
:1045E00053E8001F014503D143E800C2002AF7D178
:1045F000081AB0FA80F04009BFF35F8F0E918DF872
:104600003C00D9E601980D9001200C9004E001983F
:104610000D9000200C90FFE70C980D991AB080BD0A
:1046200048F2E800C0F2000016903421179148F2D9
:104630001C12C0F20002692101F047FF48F22C1061
:10464000C0F2000018903D21199148F26C12C0F29E
:1046500000027B2101F039FF80B56F4682B00090E7
:10466000019102B080BD80B56F4683B000910146D4
:1046700000980191029003B080BD80B56F4684B070
:1046800001910290029820B1FFE70298039004B0D4
:1046900080BD0198FFF797FAFFE7FEDE80B56F4611
:1046A00084B001910290029820B1FFE70298039034
:1046B00004B080BD0198FFF786FAFFE7FEDE80B503
:1046C0006F4684B00090009830B1FFE700980390E7
:1046D000FFF760F9019002E000200190FFE70198E8
:1046E00004B080BD80B56F4684B00090009830B1B2
:1046F000FFE700980390FFF78DF9019002E000209A
:104700000190FFE7019804B080BD80B56F4685B089
:10471000009001910098012803D1FFE7002002904A
:1047200005E001980490039001200290FFE70098B3
:10473000012801D1FFE7FFE70298039905B080BD8A
:1047400080B56F4640F20600C0F2000001F0ACFBFD
:1047500080BD80B56F4681B0009001B080BD80B54E
:104760006F4682B00090019040BF02B080BD80B51E
:104770006F4682B00090019000F048F941F2440089
:10478000C2F20000002100F053F860B9FFE741F2E7
:104790004400C2F200000121002200F057F8009806
:1047A00000F021F8FFE700F000F880B56F4682B016
:1047B00048F27C11C0F200014EF62450CEF2000007
:1047C000009000F045F9014600980191019921F40B
:1047D00080210191019948F28C12C0F2000200F090
:1047E00063F900F00FF980B56F4686B0049002902F
:1047F00002A80190059040F20500C0F2000001F00F
:1048000053FB27F80A0CA7F10A0001F0ECFA019813
:1048100000F0D2F801F054F806B080BD80B56F46C4
:1048200082B000900191006802F01BFA02B080BDD6
:1048300080B56F4682B0009007F8011C00F012F8B6
:10484000C0B2002818BF012002B080BD80B56F46FD
:1048500082B0009007F8021C07F8012C00F046F81F
:1048600002B080BD80B56F468AB00190049007F811
:10487000111CC8B202900299DFE801F00409171E6A
:104880002C00FEDE0198007807F8190C29E048F2A8
:104890009C10C0F2000006902821079148F2C41233
:1048A000C0F20002512101F010FE01980078BFF320
:1048B0005F8F07F8190C14E048F2D410C0F2000022
:1048C00008903121099148F20822C0F200026321C8
:1048D00001F0FBFD01980078BFF35F8F07F8190C1A
:1048E000FFE717F8190C0AB080BDD4D480B56F4625
:1048F0008AB001900B460293049007F8121C07F847
:10490000112CD0B203900399DFE801F004080E1CCB
:104910002A00FEDE02980199087029E002980199A8
:10492000BFF35F8F087023E048F21820C0F2000048
:1049300006902A21079148F24422C0F20002552134
:1049400001F0C3FD48F25420C0F20000089032216B
:10495000099148F28822C0F20002652101F0B5FDFC
:1049600002980199BFF35F8F0870BFF35F8FFFE775
:104970000AB080BD80B56F4684B007F8090CC0B29C
:1049800000900099DFE801F0041213141500FEDE18
:1049900048F29820C0F2000002902921039148F2C9
:1049A000C422C0F20002532101F08FFD02E001E0B9
:1049B00000E0FFE704B080BD80B56F4684B0019091
:1049C000039000F00AF827F8060CB81F01F02DFA42
:1049D000019800F00BF804B080BD80B56F4640F23E
:1049E0000100C0F2000001F05FFA80BD80B56F46A3
:1049F00082B0019048F2D421C0F2000101F02BFAFC
:104A000002B080BD80B56F4600DEFEDE80B56F4629
:104A100072B60420FFF7AEFF80BD80B56F4682B04E
:104A200000F0A1F800F0B8F8009007F8010C00F0D1
:104A3000C8F8009802B080BD80B56F4682B007F814
:104A4000010C10B9FFE702B080BD00F0B3F8FAE73F
:104A500080B56F4684B0009101900290FFE7009A04
:104A60000198042100F007F8FFE70198006803901F
:104A7000039804B080BD80B56F4686B00192029065
:104A8000039100F0B3F868B9FFE7019B48F2E42016
:104A9000C0F200000490D621059140F2AD11002231
:104AA00001F0FDFC06B080BD80B56F4686B0019276
:104AB0000291039004900591FFE7019A0398042165
:104AC00000F006F8FFE702980399086006B080BD81
:104AD00080B56F4686B0009201900291039000F07D
:104AE00085F868B9FFE7009B48F2BA30C0F20000D1
:104AF0000490D721059140F2AF11002201F0CFFCC4
:104B000006B080BD80B56F4684B007F8090CC0B20E
:104B100000900099DFE801F0041213141500FEDE86
:104B200048F29140C0F2000002902921039148F21E
:104B3000BC42C0F20002532101F0C7FC02E001E0D8
:104B400000E0FFE704B080BD80B56F4684B0009000
:104B500001910078029009780391401AB0FA80F030
:104B6000400904B080BD80B56F4683B0EFF310807C
:104B700002900298019000F00100012804D0FFE7A4
:104B8000002007F8090C03E0012007F8090CFFE7F3
:104B900017F8090C03B080BD80B56F4682B007F8E6
:104BA000010C47F23631C0F20001781EFFF7CCFF4E
:104BB00002B080BD80B56F460420FFF7A3FF62B648
:104BC00080BD80B56F4672B60420FFF79BFF80BDA5
:104BD00080B56F46FFF721FF80BD80B56F4682B07C
:104BE00007F8010CFFF728FF02B080BD80B56F46C3
:104BF00088B001910290039004914FF0553000EA83
:104C00005100081A4FF0333101EA900120F0CC3006
:104C1000084400EB101020F0F0304FF00131484311
:104C2000000E05900598012809D1FFE70298019927
:104C300001390840B0FA80F0400908B080BD48F260
:104C4000CC40C0F2000006902A21079148F2F842B9
:104C5000C0F20002552101F038FC80B56F4680BDDE
:104C600080B56F468AB0019302920391049005903B
:104C7000069107920890904208D8FFE70398049A9B
:104C80000299891A099110440AB080BD019B029AC9
:104C90000498114601F088FE80B56F4685B00090FB
:104CA000019101A8039068460490019800998842F8
:104CB00003D3FFE70098029002E001980290FFE71B
:104CC000029805B080BD80B56F4682B0009001911A
:104CD0004900013102B080BD80B56F4690B00193AC
:104CE000029203918446CDF810C0F8680590B86828
:104CF0000690CDF820C009910A920B9320B9FFE7E6
:104D0000012007F8210C06E00298B0FA80F0400973
:104D100007F8210CFFE70199049817F8212C134696
:104D2000009307F80D2C00F079FE08B9FFE703E0C7
:104D30000098C00720B900E00AE0049808B9FBE732
:104D4000FFE7019903980D9000F068FE10B900E0AC
:104D500012E004E017F8210CC00720B900E0F7E7E3
:104D6000039808B9FBE7FFE7069B029A03990498AA
:104D700000F06CF970B9FFE7059B48F21850C0F2DB
:104D800000000E9040F21B110F9140F237210022DB
:104D900001F085FB10B080BD80B56F4682B00090F9
:104DA00007F8011C00F028F8C0B2002818BF012045
:104DB00002B080BD80B56F4682B0009007F8021C3B
:104DC00007F8012C00F09CF802B080BD80B56F465A
:104DD00082B0009007F8011C00F052F802B080BDCC
:104DE00080B56F4684B00190029107F8012C00F065
:104DF000CBF804B080BDD4D480B56F468AB00190A2
:104E0000049007F8111CC8B202900299DFE801F083
:104E10000409171E2C00FEDE0198007807F8190C13
:104E200029E048F23360C0F2000006902821079183
:104E300048F25C62C0F20002512101F046FB019889
:104E40000078BFF35F8F07F8190C14E048F26C602C
:104E5000C0F2000008903121099148F2A062C0F22E
:104E60000002632101F031FB01980078BFF35F8FEE
:104E700007F8190CFFE717F8190C0AB080BDD4D455
:104E800080B56F468AB00190049007F8111CC8B233
:104E900002900299DFE801F00408161C2A00FEDEE9
:104EA00001980068039027E048F23360C0F20000E8
:104EB00006902821079148F25C62C0F2000251215D
:104EC00001F003FB01980068BFF35F8F039013E0CC
:104ED00048F26C60C0F2000008903121099148F25C
:104EE000A062C0F20002632101F0EFFA01980068AD
:104EF000BFF35F8F0390FFE703980AB080BDD4D45F
:104F000080B56F468AB001900B460293049007F873
:104F1000121C07F8112CD0B203900399DFE801F0BE
:104F200004080E1C2A00FEDE02980199087029E090
:104F300002980199BFF35F8F087023E048F2B060D8
:104F4000C0F2000006902A21079148F2DC62C0F20C
:104F50000002552101F0B9FA48F2EC60C0F20000FD
:104F600008903221099148F22072C0F200026521B6
:104F700001F0ABFA02980199BFF35F8F0870BFF39D
:104F80005F8FFFE70AB080BD80B56F468AB00091A1
:104F900001900390049107F8112CD0B2029002996D
:104FA000DFE801F004080E1C2A00FEDE00980199DB
:104FB000086029E000980199BFF35F8F086023E043
:104FC00048F2B060C0F2000006902A21079148F232
:104FD000DC62C0F20002552101F077FA48F2EC6081
:104FE000C0F2000008903221099148F22072C0F20C
:104FF0000002652101F069FA00980199BFF35F8F03
:105000000860BFF35F8FFFE70AB080BD80B56F46D1
:1050100082B000900191B1FA81F0400902B080BDE8
:1050200080B56F468AB0009101900390049105917C
:10503000069007910890FFE70198009909900844AD
:105040000290FFE7019802990AB080BD80B56F46D3
:1050500090B00790089109920A938446CDF804C055
:105060000B90084602900C91A2FB0301002918BF87
:1050700001210246039207F8091C0E900CD1FFE7AC
:1050800001980299039A059201220492059A0092CE
:105090000F9288420CD306E048F23070C0F2000054
:1050A0003D2101F0F1F901980299401A069004E0BF
:1050B00002980199401A0690FFE7009906988842E5
:1050C0004FF0000028BF012010B080BD80B56F46B2
:1050D00082B00A4601460091019241F24500C2F2B7
:1050E000000000F091F902B080BD80B56F4641F23A
:1050F0004500C2F2000000F0A3F980BD80B56F4604
:1051000041F24500C2F2000000F0DEF980BD80B53A
:105110006F4684B0009002900078C00748B9FFE75E
:10512000009901200870A7F10900002100F003F8A0
:10513000FFE704B080BD80B56F4684B0029007F8E9
:10514000011C07F8091CA7F10901012200F0ADF9C3
:1051500004B080BD80B56F4690B005920A460599AF
:1051600006920246069807920C920D900E91FFF758
:1051700057FF09900A91FFE709A800F023F90B9067
:105180000B9858B1FFE707980B9909780A460492E3
:1051900007F8011C4078072806D301E010B080BD55
:1051A0000498000690B104E004980006002843D05B
:1051B0003CE00499A7F11D0000F07CF807984178C5
:1051C0004A1CD0B2039288420ED306E0079840787A
:1051D000C11F0291072823D316E007980399417055
:1051E0004078862806D0C7E748F27070C0F2000009
:1051F00001F029FCA7F11D00FF2100F05BF80799E1
:10520000002048708870B7E7029860F07F01A7F12E
:105210001D0000F04FF80799002048708870ABE738
:1052200048F28070C0F2000001F021FC0499A7F15F
:105230001D0000F03FF806E0079840780146019114
:10524000082808D312E0079841784A1CD0B200928F
:10525000884218D310E00799019800F00702012056
:1052600000FA02F2887810438870ECE748F29070F8
:10527000C0F2000001F0F1FB0798009941704078FE
:10528000072806D078E748F2A070C0F2000001F0CD
:10529000DAFB0798807800283FF46EAFFFE70798A5
:1052A0008178A7F11D0000F005F8079900204870EB
:1052B000887061E780B56F4684B0029007F8011CE2
:1052C00007F8091CA7F10901012200F0AAF804B0AF
:1052D00080BD80B56F4688B004900690407860B974
:1052E000FFE7A7F109000021039100F042F80499BB
:1052F00003984870887008B080BD0498407838B929
:10530000FFE704984078C11F0291072816D30DE0EB
:10531000049840780628F4D8FFE7049948788978FB
:1053200000910146019108280ED31CE0029860F01C
:105330007F01A7F1090000F01CF8D2E748F2B07035
:10534000C0F2000001F093FB0098019901F0070200
:105350004FF0FF319140084300F07F01A7F10900B1
:1053600000F007F8BDE748F2C070C0F2000001F09D
:1053700074FB80B56F4684B0029007F8011C07F8F3
:10538000091CA7F10901012200F0CEF804B080BD8C
:1053900080B56F4682B00090FFF7B9FE02B080BDC5
:1053A00080B56F4684B0009001910292FFF7D2FE63
:1053B00004B080BD80B56F4682B00090FFF789FFD2
:1053C00002B080BD80B56F4689B000900490012185
:1053D000059106910168019107914068029008903B
:1053E000FFE701980299884205D0FFE700990198EC
:1053F0000130086002E00020039002E00198039071
:10540000FFE7039809B080BD80B56F4686B0019074
:1054100002910392023005900490FFF7C1FF06B09D
:1054200080BD80B56F4684B001900291039240F236
:105430000800C2F20000183000F005FA04B080BD88
:1054400080B56F468AB001900390FFF7C1FB01461B
:1054500001980A46029207F8151C0021FFF79CFCF0
:10546000B0B9FFE7019801210022FFF7A3FC0299E0
:105470000198421C0992069201F0010107F8091CEB
:105480004170023008900590FFF782FF0AB080BD9E
:1054900048F2D070C0F200001E21FFF714FC48F261
:1054A000F072C0F2000201F010F880B56F4684B0CF
:1054B00001900291039240F20800C2F200001830FD
:1054C00000F0C1F904B080BD80B56F4688B001908E
:1054D00002900021FFF760FC68B9FFE748F6000082
:1054E000C0F200001C21FFF7EEFB48F61C02C0F2E0
:1054F000000200F0EAFF0198023006900390FFF7E7
:1055000059FF0198411C079105914178009107F8D6
:105510000E1C00221146FFF74DFC009807F80D0CF9
:10552000FFF75BFB08B080BD80B56F4684B001908B
:105530000291039240F20800C2F20000183000F01D
:1055400082F904B080BD80B56F468AB0059106909F
:1055500008900991884203D8FFE7069878B106E0E1
:1055600006980599421A0492884235D32FE005988F
:10557000C0F580610391B0F5806F0BD807E0059806
:10558000C0F580610291B0F5806F11D80BE00398EF
:10559000079005E048F62C00C0F2000001F067FA21
:1055A00007980AB080BD0298411E019148B105E0FC
:1055B00048F63C00C0F2000001F059FA019807904B
:1055C000EEE748F63C00C0F2000001F050FA049803
:1055D000411E009148B105E048F64C00C0F20000C1
:1055E00001F045FA00980790DAE748F64C00C0F25F
:1055F000000001F03CFA80B56F46ACB00C930A9203
:105600000A46099284460A98CDF82CC0B968CDF8AC
:105610003CC0109211901293FFF73EFB0C9B014689
:105620000D911390184401460E91984205D3FFE75F
:105630000E98B0F5806F29D805E048F65C00C0F2FE
:10564000000001F000FA0D9A09980C9B0B99DDF807
:1056500028C02A90CDF8ACC0496822912393194400
:1056600008911D901E911F9248F2085CC0F2000C38
:105670006B46C3F804C01A6001231A46FFF72CFBDF
:10568000089809990D9A01F042FB07E00C98C0F5C3
:1056900080610791B0F5806F46D80EE00D9A0C99A5
:1056A0000B980C301591169211446FF39F21012233
:1056B000FFF796FB0D982CB080BD079A0B990998BF
:1056C000DDF828C00C9B14922890CDF8A4C049683E
:1056D00020912193194403911A901B911C9248F236
:1056E000085CC0F2000C6B46C3F804C01A600123CA
:1056F0001A46FFF7F1FA03980999079A01F007FB98
:10570000DDF828C0099B0B9A07990D982693CDF8D0
:105710009CC0249325910B44049352680592421A2D
:10572000069288421ED305E048F66C00C0F20000E5
:1057300001F09DF9069A049805991790189119920D
:1057400048F2085CC0F2000C6B46C3F804C01A6053
:1057500001231A46FFF7C0FA05980499069A01F04A
:10576000D6FA9BE748F67C00C0F2000001F07FF912
:1057700080B56F468EB004920A460499059202469F
:1057800005980692089209900A91FFF73FFCC8B964
:10579000FFE7069810300021FFF718FB0146069836
:1057A00001910B910C300221FFF710FB014601988B
:1057B0000A4602920C91FFF7C6FE014603910D9036
:1057C00080B102E0002007900FE0029B049A059947
:1057D0000698DDF80CC0EE46CEF800C0FFF70BFFD0
:1057E000079002E000200790FFE707980EB080BD09
:1057F00080B56F4682B0019014300021FFF7E6FAC1
:1058000000F003000238B0FA80F0400902B080BD19
:1058100080B56F4688B00292019103900490059183
:1058200006920C300221FFF7D1FA0199029A034641
:1058300003980793EE464FF4806CCEF800C0FFF754
:10584000DAFE08B080BD80B56F468AB00190029143
:1058500003920590FFF7CCFF30B9FFE745F6110042
:10586000C0F20000049005E045F27170C0F2000043
:105870000490FFE702980399FFF7C8FB50B9FFE7D0
:105880000198049B0299039A98470146009106905B
:1058900010B9EFE70AB080BD00980299039A07910A
:1058A0000892099048F68C03C0F20003FFF7D8F97C
:1058B00002900391DEE780B56F46FFF716FC80BDCE
:1058C00080B56F46FFF71AFC80BD80B56F4682B089
:1058D00000900191FFF7FAFB02B080BD80B56F46E2
:1058E00082B002460092019110685268D2689047D7
:1058F00002B080BD80B56F4684B00091014600982B
:105900000390019045F6DD00C0F20000029001987E
:10591000029A4A60086004B080BD80B56F468AB0C4
:105920000091014600980191049105900021039196
:1059300003A906910422079200F0A7F802460198F5
:1059400002920A4602990891099200F0B4FA0AB04C
:1059500080BD80B56F4684B001900291039200F043
:10596000BFFA04B080BD80B56F4690B00490089037
:10597000406805900990C00758B1FFE70598049961
:10598000096802910A910B914008014603910C901D
:1059900008E047F60020C0F2000001684068069168
:1059A000079013E0039B029848F69C01C0F20001A7
:1059B0006A4611600122114600F072F9FFE7039870
:1059C00002990D910E9006910790FFE7002007F8CD
:1059D000010C17F8010CC00748B9FFE747F6002093
:1059E000C0F20000016840680691079000E0FFE700
:1059F0000698079910B080BD80B56F4682B00090C0
:105A0000019102B080BD80B56F4681B027F8020CCD
:105A1000ADF80000BDF8000001B080BD80B56F4654
:105A200088B001910290039004914FF0553000EA44
:105A30005100081A4FF0333101EA900120F0CC30C8
:105A4000084400EB101020F0F0304FF001314843D3
:105A5000000E05900598012809D1FFE702980199E9
:105A600001390840B0FA80F0400908B080BD48F61E
:105A7000AC00C0F2000006902A21079148F6D80237
:105A8000C0F20002552100F020FD80B56F468AB0BB
:105A9000019202910390059006910792802805D308
:105AA000FFE70398B0F5006F08D302E001200490EF
:105AB0000DE00398B0F5803F06D302E00220049089
:105AC00005E00420049002E003200490FFE7019821
:105AD00008900499884207D3FFE70299039800F0E1
